{
  "contractName": "AnswerRecoveryModule",
  "abi": [
    {
      "anonymous": false,
      "inputs": [
        {
          "indexed": false,
          "internalType": "address",
          "name": "masterCopy",
          "type": "address"
        }
      ],
      "name": "ChangedMasterCopy",
      "type": "event"
    },
    {
      "constant": true,
      "inputs": [],
      "name": "NAME",
      "outputs": [
        {
          "internalType": "string",
          "name": "",
          "type": "string"
        }
      ],
      "payable": false,
      "stateMutability": "view",
      "type": "function"
    },
    {
      "constant": true,
      "inputs": [],
      "name": "VERSION",
      "outputs": [
        {
          "internalType": "string",
          "name": "",
          "type": "string"
        }
      ],
      "payable": false,
      "stateMutability": "view",
      "type": "function"
    },
    {
      "constant": false,
      "inputs": [
        {
          "internalType": "address",
          "name": "_masterCopy",
          "type": "address"
        }
      ],
      "name": "changeMasterCopy",
      "outputs": [],
      "payable": false,
      "stateMutability": "nonpayable",
      "type": "function"
    },
    {
      "constant": true,
      "inputs": [],
      "name": "manager",
      "outputs": [
        {
          "internalType": "contract ModuleManager",
          "name": "",
          "type": "address"
        }
      ],
      "payable": false,
      "stateMutability": "view",
      "type": "function"
    },
    {
      "constant": false,
      "inputs": [],
      "name": "setup",
      "outputs": [],
      "payable": false,
      "stateMutability": "nonpayable",
      "type": "function"
    },
    {
      "constant": false,
      "inputs": [
        {
          "internalType": "bytes",
          "name": "_answer",
          "type": "bytes"
        }
      ],
      "name": "enableRecovery",
      "outputs": [],
      "payable": false,
      "stateMutability": "nonpayable",
      "type": "function"
    },
    {
      "constant": false,
      "inputs": [
        {
          "internalType": "bytes",
          "name": "_answer",
          "type": "bytes"
        },
        {
          "internalType": "address",
          "name": "newOwner",
          "type": "address"
        }
      ],
      "name": "recoverAccess",
      "outputs": [],
      "payable": false,
      "stateMutability": "nonpayable",
      "type": "function"
    }
  ],
  "bytecode": "0x608060405234801561001057600080fd5b506108d2806100206000396000f3fe608060405234801561001057600080fd5b506004361061007d5760003560e01c8063a3f4df7e1161005b578063a3f4df7e1461017f578063aa5dfe6a146101fc578063ba0bba40146102a2578063ffa1ad74146102aa5761007d565b80631145368b14610082578063481c6a75146101355780637de7edef14610159575b600080fd5b6101336004803603604081101561009857600080fd5b8101906020810181356401000000008111156100b357600080fd5b8201836020820111156100c557600080fd5b803590602001918460018302840111640100000000831117156100e757600080fd5b91908080601f016020809104026020016040519081016040528093929190818152602001838380828437600092019190915250929550505090356001600160a01b031691506102b29050565b005b61013d610629565b604080516001600160a01b039092168252519081900360200190f35b6101336004803603602081101561016f57600080fd5b50356001600160a01b0316610638565b61018761071a565b6040805160208082528351818301528351919283929083019185019080838360005b838110156101c15781810151838201526020016101a9565b50505050905090810190601f1680156101ee5780820380516001836020036101000a031916815260200191505b509250505060405180910390f35b6101336004803603602081101561021257600080fd5b81019060208101813564010000000081111561022d57600080fd5b82018360208201111561023f57600080fd5b8035906020019184600183028401116401000000008311171561026157600080fd5b91908080601f016020809104026020016040519081016040528093929190818152602001838380828437600092019190915250929550610745945050505050565b6101336107b6565b6101876107c0565b8151602080840191909120600081815260029092526040909120546001600160a01b0316610317576040805162461bcd60e51b815260206004820152600d60248201526c57726f6e6720616e737765722160981b604482015290519081900360640190fd5b604080516001600160a01b0384811660248084019190915260016044808501829052855180860382018152606495860187526020810180516001600160e01b0316630d582f1360e01b1781529254965163468721a760e01b81529690941660048701818152600094880185905295870184905260809187019182528451608488015284519496909563468721a79587959489948694909260a49091019190808383885b838110156103d25781810151838201526020016103ba565b50505050905090810190601f1680156103ff5780820380516001836020036101000a031916815260200191505b5095505050505050602060405180830381600087803b15801561042157600080fd5b505af1158015610435573d6000803e3d6000fd5b505050506040513d602081101561044b57600080fd5b505161049e576040805162461bcd60e51b815260206004820152601b60248201527f436f756c64206e6f742065786563757465207265636f76657279210000000000604482015290519081900360640190fd5b604080516001602480830182905230604480850191909152845180850382018152606494850186526020810180516001600160e01b0316637004e7ef60e11b1781529354955163468721a760e01b81526001600160a01b0390961660048701818152600094880185905295870184905260809287019283528151608488015281519196909563468721a79587959489948694919260a49092019190808383885b8381101561055657818101518382015260200161053e565b50505050905090810190601f1680156105835780820380516001836020036101000a031916815260200191505b5095505050505050602060405180830381600087803b1580156105a557600080fd5b505af11580156105b9573d6000803e3d6000fd5b505050506040513d60208110156105cf57600080fd5b5051610622576040805162461bcd60e51b815260206004820152601960248201527f436f756c64206e6f742064697361626c65206d6f64756c652100000000000000604482015290519081900360640190fd5b5050505050565b6001546001600160a01b031681565b6001546001600160a01b031633146106815760405162461bcd60e51b81526004018080602001828103825260268152602001806108786026913960400191505060405180910390fd5b6001600160a01b0381166106c65760405162461bcd60e51b81526004018080602001828103825260248152602001806108546024913960400191505060405180910390fd5b600080546001600160a01b0383166001600160a01b0319909116811790915560408051918252517f75e41bc35ff1bf14d81d1d2f649c0084a0f974f9289c803ec9898eeec4c8d0b89181900360200190a150565b6040518060400160405280600f81526020016e5265636f76657279204d6f64756c6560881b81525081565b6001546001600160a01b0316331461078e5760405162461bcd60e51b81526004018080602001828103825260268152602001806108786026913960400191505060405180910390fd5b8051602091820120600090815260029091526040902080546001600160a01b03191633179055565b6107be6107e1565b565b604051806040016040528060058152602001640302e312e360dc1b81525081565b6001546001600160a01b03161561083f576040805162461bcd60e51b815260206004820152601c60248201527f4d616e616765722068617320616c7265616479206265656e2073657400000000604482015290519081900360640190fd5b600180546001600160a01b0319163317905556fe496e76616c6964206d617374657220636f707920616464726573732070726f76696465644d6574686f642063616e206f6e6c792062652063616c6c65642066726f6d206d616e61676572a265627a7a723158206cd8c8ac376ebbb716af8f57573af2080c0475c98d9325f3b365c9f6bbc89c3964736f6c63430005110032",
  "source": "pragma solidity >=0.5.3 <0.6.0;\n\nimport \"@gnosis.pm/safe-contracts/contracts/base/Module.sol\";\n// Required for triggering execution\nimport \"@gnosis.pm/safe-contracts/contracts/common/Enum.sol\";\nimport \"@gnosis.pm/safe-contracts/contracts/common/SelfAuthorized.sol\";\n\ncontract AnswerRecoveryModule is SelfAuthorized, Module {\n\n  string public constant NAME = \"Recovery Module\";\n  string public constant VERSION = \"0.1.0\";\n\n  mapping (bytes32 => address) internal addresses;\n\n  function setup()\n  public\n  {\n    setManager();\n  }\n\n  function enableRecovery(bytes memory _answer) public authorized{\n    bytes32 answer = keccak256(_answer);\n    addresses[answer] = msg.sender;\n  }\n\n  function recoverAccess(bytes memory _answer, address newOwner)\n  public\n  {\n    bytes32 answer = keccak256(_answer);\n    require(addresses[answer] != address(0), \"Wrong answer!\");\n    bytes memory addOwnerData = abi.encodeWithSignature(\"addOwnerWithThreshold(address,uint256)\", newOwner, 1);\n    require(manager.execTransactionFromModule(address(manager), 0, addOwnerData, Enum.Operation.Call), \"Could not execute recovery!\");\n    // This recovery module can only be used once and should be disabled when the recovery was successfull\n    bytes memory disableModuleData = abi.encodeWithSignature(\"disableModule(address,address)\", address(0x1), address(this));\n    require(manager.execTransactionFromModule(address(manager), 0, disableModuleData, Enum.Operation.Call), \"Could not disable module!\");\n  }\n\n}\n",
  "sourcePath": "/Users/leckylao/Workspaces/gnosis-hack/contracts/AnswerRecoveryModule.sol",
  "compiler": {
    "name": "solc",
    "version": "0.5.17+commit.d19bba13.Emscripten.clang"
  },
  "schemaVersion": "3.1.0",
  "updatedAt": "2020-04-30T06:13:55.821Z",
  "networkType": "ethereum",
  "devdoc": {
    "methods": {
      "changeMasterCopy(address)": {
        "details": "Allows to upgrade the contract. This can only be done via a Safe transaction.",
        "params": {
          "_masterCopy": "New contract address."
        }
      }
    }
  },
  "userdoc": {
    "methods": {}
  }
}