{
  "contractName": "ModuleManager",
  "abi": [
    {
      "anonymous": false,
      "inputs": [
        {
          "indexed": false,
          "internalType": "contract Module",
          "name": "module",
          "type": "address"
        }
      ],
      "name": "DisabledModule",
      "type": "event"
    },
    {
      "anonymous": false,
      "inputs": [
        {
          "indexed": false,
          "internalType": "contract Module",
          "name": "module",
          "type": "address"
        }
      ],
      "name": "EnabledModule",
      "type": "event"
    },
    {
      "anonymous": false,
      "inputs": [
        {
          "indexed": true,
          "internalType": "address",
          "name": "module",
          "type": "address"
        }
      ],
      "name": "ExecutionFromModuleFailure",
      "type": "event"
    },
    {
      "anonymous": false,
      "inputs": [
        {
          "indexed": true,
          "internalType": "address",
          "name": "module",
          "type": "address"
        }
      ],
      "name": "ExecutionFromModuleSuccess",
      "type": "event"
    },
    {
      "constant": false,
      "inputs": [
        {
          "internalType": "contract Module",
          "name": "module",
          "type": "address"
        }
      ],
      "name": "enableModule",
      "outputs": [],
      "payable": false,
      "stateMutability": "nonpayable",
      "type": "function"
    },
    {
      "constant": false,
      "inputs": [
        {
          "internalType": "contract Module",
          "name": "prevModule",
          "type": "address"
        },
        {
          "internalType": "contract Module",
          "name": "module",
          "type": "address"
        }
      ],
      "name": "disableModule",
      "outputs": [],
      "payable": false,
      "stateMutability": "nonpayable",
      "type": "function"
    },
    {
      "constant": false,
      "inputs": [
        {
          "internalType": "address",
          "name": "to",
          "type": "address"
        },
        {
          "internalType": "uint256",
          "name": "value",
          "type": "uint256"
        },
        {
          "internalType": "bytes",
          "name": "data",
          "type": "bytes"
        },
        {
          "internalType": "enum Enum.Operation",
          "name": "operation",
          "type": "uint8"
        }
      ],
      "name": "execTransactionFromModule",
      "outputs": [
        {
          "internalType": "bool",
          "name": "success",
          "type": "bool"
        }
      ],
      "payable": false,
      "stateMutability": "nonpayable",
      "type": "function"
    },
    {
      "constant": false,
      "inputs": [
        {
          "internalType": "address",
          "name": "to",
          "type": "address"
        },
        {
          "internalType": "uint256",
          "name": "value",
          "type": "uint256"
        },
        {
          "internalType": "bytes",
          "name": "data",
          "type": "bytes"
        },
        {
          "internalType": "enum Enum.Operation",
          "name": "operation",
          "type": "uint8"
        }
      ],
      "name": "execTransactionFromModuleReturnData",
      "outputs": [
        {
          "internalType": "bool",
          "name": "success",
          "type": "bool"
        },
        {
          "internalType": "bytes",
          "name": "returnData",
          "type": "bytes"
        }
      ],
      "payable": false,
      "stateMutability": "nonpayable",
      "type": "function"
    },
    {
      "constant": true,
      "inputs": [],
      "name": "getModules",
      "outputs": [
        {
          "internalType": "address[]",
          "name": "",
          "type": "address[]"
        }
      ],
      "payable": false,
      "stateMutability": "view",
      "type": "function"
    },
    {
      "constant": true,
      "inputs": [
        {
          "internalType": "address",
          "name": "start",
          "type": "address"
        },
        {
          "internalType": "uint256",
          "name": "pageSize",
          "type": "uint256"
        }
      ],
      "name": "getModulesPaginated",
      "outputs": [
        {
          "internalType": "address[]",
          "name": "array",
          "type": "address[]"
        },
        {
          "internalType": "address",
          "name": "next",
          "type": "address"
        }
      ],
      "payable": false,
      "stateMutability": "view",
      "type": "function"
    }
  ],
  "bytecode": "0x608060405234801561001057600080fd5b50610a38806100206000396000f3fe608060405234801561001057600080fd5b50600436106100625760003560e01c8063468721a7146100675780635229073f1461013b578063610b59251461027e578063b2494df3146102a6578063cc2f8452146102fe578063e009cfde14610397575b600080fd5b6101276004803603608081101561007d57600080fd5b6001600160a01b03823516916020810135918101906060810160408201356401000000008111156100ad57600080fd5b8201836020820111156100bf57600080fd5b803590602001918460018302840111640100000000831117156100e157600080fd5b91908080601f0160208091040260200160405190810160405280939291908181526020018383808284376000920191909152509295505050903560ff1691506103c59050565b604080519115158252519081900360200190f35b6101fb6004803603608081101561015157600080fd5b6001600160a01b038235169160208101359181019060608101604082013564010000000081111561018157600080fd5b82018360208201111561019357600080fd5b803590602001918460018302840111640100000000831117156101b557600080fd5b91908080601f0160208091040260200160405190810160405280939291908181526020018383808284376000920191909152509295505050903560ff1691506104a39050565b604051808315151515815260200180602001828103825283818151815260200191508051906020019080838360005b8381101561024257818101518382015260200161022a565b50505050905090810190601f16801561026f5780820380516001836020036101000a031916815260200191505b50935050505060405180910390f35b6102a46004803603602081101561029457600080fd5b50356001600160a01b03166104d9565b005b6102ae61068a565b60408051602080825283518183015283519192839290830191858101910280838360005b838110156102ea5781810151838201526020016102d2565b505050509050019250505060405180910390f35b61032a6004803603604081101561031457600080fd5b506001600160a01b0381351690602001356106a0565b6040518080602001836001600160a01b03166001600160a01b03168152602001828103825284818151815260200191508051906020019060200280838360005b8381101561038257818101518382015260200161036a565b50505050905001935050505060405180910390f35b6102a4600480360360408110156103ad57600080fd5b506001600160a01b0381358116916020013516610775565b6000336001148015906103ef5750336000908152602081905260409020546001600160a01b031615155b61042a5760405162461bcd60e51b81526004018080602001828103825260308152602001806109d46030913960400191505060405180910390fd5b610437858585855a6108fd565b9050801561046f5760405133907f6895c13664aa4f67288b25d7a21d7aaa34916e355fb9b6fae0a139a9085becb890600090a261049b565b60405133907facd2c8702804128fdb0db2bb49f6d127dd0181c13fd45dbfe16de0930e2bd37590600090a25b949350505050565b600060606104b3868686866103c5565b915060405160203d0181016040523d81523d6000602083013e8091505094509492505050565b3330146105175760405162461bcd60e51b815260040180806020018281038252602c8152602001806109a8602c913960400191505060405180910390fd5b6001600160a01b0381161580159061053957506001600160a01b038116600114155b61058a576040805162461bcd60e51b815260206004820152601f60248201527f496e76616c6964206d6f64756c6520616464726573732070726f766964656400604482015290519081900360640190fd5b6001600160a01b0381811660009081526020819052604090205416156105f7576040805162461bcd60e51b815260206004820152601d60248201527f4d6f64756c652068617320616c7265616479206265656e206164646564000000604482015290519081900360640190fd5b600060208181527fada5013122d395ba3c54772283fb069b10426056ef8ca54750cb9bb552a59e7d80546001600160a01b0385811680865260408087208054939094166001600160a01b031993841617909355600190955282541684179091558051928352517fecdf3a3effea5783a3c4c2140e677577666428d44ed9d474a0b3a4c9943f84409281900390910190a150565b6060806106996001600a6106a0565b5091505090565b60606000826040519080825280602002602001820160405280156106ce578160200160208202803883390190505b506001600160a01b0380861660009081526020819052604081205492945091165b6001600160a01b0381161580159061071157506001600160a01b038116600114155b801561071c57508482105b15610767578084838151811061072e57fe5b6001600160a01b0392831660209182029290920181019190915291811660009081529182905260409091205460019290920191166106ef565b908352919491935090915050565b3330146107b35760405162461bcd60e51b815260040180806020018281038252602c8152602001806109a8602c913960400191505060405180910390fd5b6001600160a01b038116158015906107d557506001600160a01b038116600114155b610826576040805162461bcd60e51b815260206004820152601f60248201527f496e76616c6964206d6f64756c6520616464726573732070726f766964656400604482015290519081900360640190fd5b6001600160a01b038281166000908152602081905260409020548116908216146108815760405162461bcd60e51b81526004018080602001828103825260288152602001806109806028913960400191505060405180910390fd5b6001600160a01b03818116600081815260208181526040808320805488871685528285208054919097166001600160a01b031991821617909655928490528254909416909155825191825291517faab4fa2b463f581b2b32cb3b7e3b704b9ce37cc209b5fb4d77e593ace4054276929181900390910190a15050565b60008083600181111561090c57fe5b14156109255761091e86868685610951565b9050610948565b600183600181111561093357fe5b14156109445761091e868584610969565b5060005b95945050505050565b6000806000845160208601878987f195945050505050565b60008060008451602086018786f494935050505056fe496e76616c696420707265764d6f64756c652c206d6f64756c6520706169722070726f76696465644d6574686f642063616e206f6e6c792062652063616c6c65642066726f6d207468697320636f6e74726163744d6574686f642063616e206f6e6c792062652063616c6c65642066726f6d20616e20656e61626c6564206d6f64756c65a265627a7a723158204761383ccf47e8c85e5fe65af46de8c84a3b4a29eab4f3b5424ce988e0aa7be264736f6c63430005110032",
  "source": "pragma solidity >=0.5.0 <0.7.0;\nimport \"../common/Enum.sol\";\nimport \"../common/SelfAuthorized.sol\";\nimport \"./Executor.sol\";\nimport \"./Module.sol\";\n\n\n/// @title Module Manager - A contract that manages modules that can execute transactions via this contract\n/// @author Stefan George - <stefan@gnosis.pm>\n/// @author Richard Meissner - <richard@gnosis.pm>\ncontract ModuleManager is SelfAuthorized, Executor {\n\n    event EnabledModule(Module module);\n    event DisabledModule(Module module);\n    event ExecutionFromModuleSuccess(address indexed module);\n    event ExecutionFromModuleFailure(address indexed module);\n\n    address internal constant SENTINEL_MODULES = address(0x1);\n\n    mapping (address => address) internal modules;\n\n    function setupModules(address to, bytes memory data)\n        internal\n    {\n        require(modules[SENTINEL_MODULES] == address(0), \"Modules have already been initialized\");\n        modules[SENTINEL_MODULES] = SENTINEL_MODULES;\n        if (to != address(0))\n            // Setup has to complete successfully or transaction fails.\n            require(executeDelegateCall(to, data, gasleft()), \"Could not finish initialization\");\n    }\n\n    /// @dev Allows to add a module to the whitelist.\n    ///      This can only be done via a Safe transaction.\n    /// @param module Module to be whitelisted.\n    function enableModule(Module module)\n        public\n        authorized\n    {\n        // Module address cannot be null or sentinel.\n        require(address(module) != address(0) && address(module) != SENTINEL_MODULES, \"Invalid module address provided\");\n        // Module cannot be added twice.\n        require(modules[address(module)] == address(0), \"Module has already been added\");\n        modules[address(module)] = modules[SENTINEL_MODULES];\n        modules[SENTINEL_MODULES] = address(module);\n        emit EnabledModule(module);\n    }\n\n    /// @dev Allows to remove a module from the whitelist.\n    ///      This can only be done via a Safe transaction.\n    /// @param prevModule Module that pointed to the module to be removed in the linked list\n    /// @param module Module to be removed.\n    function disableModule(Module prevModule, Module module)\n        public\n        authorized\n    {\n        // Validate module address and check that it corresponds to module index.\n        require(address(module) != address(0) && address(module) != SENTINEL_MODULES, \"Invalid module address provided\");\n        require(modules[address(prevModule)] == address(module), \"Invalid prevModule, module pair provided\");\n        modules[address(prevModule)] = modules[address(module)];\n        modules[address(module)] = address(0);\n        emit DisabledModule(module);\n    }\n\n    /// @dev Allows a Module to execute a Safe transaction without any further confirmations.\n    /// @param to Destination address of module transaction.\n    /// @param value Ether value of module transaction.\n    /// @param data Data payload of module transaction.\n    /// @param operation Operation type of module transaction.\n    function execTransactionFromModule(address to, uint256 value, bytes memory data, Enum.Operation operation)\n        public\n        returns (bool success)\n    {\n        // Only whitelisted modules are allowed.\n        require(msg.sender != SENTINEL_MODULES && modules[msg.sender] != address(0), \"Method can only be called from an enabled module\");\n        // Execute transaction without further confirmations.\n        success = execute(to, value, data, operation, gasleft());\n        if (success) emit ExecutionFromModuleSuccess(msg.sender);\n        else emit ExecutionFromModuleFailure(msg.sender);\n    }\n\n    /// @dev Allows a Module to execute a Safe transaction without any further confirmations and return data\n    /// @param to Destination address of module transaction.\n    /// @param value Ether value of module transaction.\n    /// @param data Data payload of module transaction.\n    /// @param operation Operation type of module transaction.\n    function execTransactionFromModuleReturnData(address to, uint256 value, bytes memory data, Enum.Operation operation)\n        public\n        returns (bool success, bytes memory returnData)\n    {\n        success = execTransactionFromModule(to, value, data, operation);\n        // solium-disable-next-line security/no-inline-assembly\n        assembly {\n            // Load free memory location\n            let ptr := mload(0x40)\n            // We allocate memory for the return data by setting the free memory location to\n            // current free memory location + data size + 32 bytes for data size value\n            mstore(0x40, add(ptr, add(returndatasize(), 0x20)))\n            // Store the size\n            mstore(ptr, returndatasize())\n            // Store the data\n            returndatacopy(add(ptr, 0x20), 0, returndatasize())\n            // Point the return data to the correct memory location\n            returnData := ptr\n        }\n    }\n\n    /// @dev Returns array of first 10 modules.\n    /// @return Array of modules.\n    function getModules()\n        public\n        view\n        returns (address[] memory)\n    {\n        (address[] memory array,) = getModulesPaginated(SENTINEL_MODULES, 10);\n        return array;\n    }\n\n    /// @dev Returns array of modules.\n    /// @param start Start of the page.\n    /// @param pageSize Maximum number of modules that should be returned.\n    /// @return Array of modules.\n    function getModulesPaginated(address start, uint256 pageSize)\n        public\n        view\n        returns (address[] memory array, address next)\n    {\n        // Init array with max page size\n        array = new address[](pageSize);\n\n        // Populate return array\n        uint256 moduleCount = 0;\n        address currentModule = modules[start];\n        while(currentModule != address(0x0) && currentModule != SENTINEL_MODULES && moduleCount < pageSize) {\n            array[moduleCount] = currentModule;\n            currentModule = modules[currentModule];\n            moduleCount++;\n        }\n        next = currentModule;\n        // Set correct size of returned array\n        // solium-disable-next-line security/no-inline-assembly\n        assembly {\n            mstore(array, moduleCount)\n        }\n    }\n}\n",
  "sourcePath": "@gnosis.pm/safe-contracts/contracts/base/ModuleManager.sol",
  "compiler": {
    "name": "solc",
    "version": "0.5.17+commit.d19bba13.Emscripten.clang"
  },
  "schemaVersion": "3.1.0",
  "updatedAt": "2020-04-30T03:26:02.511Z",
  "devdoc": {
    "author": "Stefan George - <stefan@gnosis.pm>Richard Meissner - <richard@gnosis.pm>",
    "methods": {
      "disableModule(address,address)": {
        "details": "Allows to remove a module from the whitelist.      This can only be done via a Safe transaction.",
        "params": {
          "module": "Module to be removed.",
          "prevModule": "Module that pointed to the module to be removed in the linked list"
        }
      },
      "enableModule(address)": {
        "details": "Allows to add a module to the whitelist.      This can only be done via a Safe transaction.",
        "params": {
          "module": "Module to be whitelisted."
        }
      },
      "execTransactionFromModule(address,uint256,bytes,uint8)": {
        "details": "Allows a Module to execute a Safe transaction without any further confirmations.",
        "params": {
          "data": "Data payload of module transaction.",
          "operation": "Operation type of module transaction.",
          "to": "Destination address of module transaction.",
          "value": "Ether value of module transaction."
        }
      },
      "execTransactionFromModuleReturnData(address,uint256,bytes,uint8)": {
        "details": "Allows a Module to execute a Safe transaction without any further confirmations and return data",
        "params": {
          "data": "Data payload of module transaction.",
          "operation": "Operation type of module transaction.",
          "to": "Destination address of module transaction.",
          "value": "Ether value of module transaction."
        }
      },
      "getModules()": {
        "details": "Returns array of first 10 modules.",
        "return": "Array of modules."
      },
      "getModulesPaginated(address,uint256)": {
        "details": "Returns array of modules.",
        "params": {
          "pageSize": "Maximum number of modules that should be returned.",
          "start": "Start of the page."
        },
        "return": "Array of modules."
      }
    },
    "title": "Module Manager - A contract that manages modules that can execute transactions via this contract"
  },
  "userdoc": {
    "methods": {}
  }
}